{
  "_format": "hh-sol-artifact-1",
  "contractName": "MyEpicNFT",
  "sourceName": "contracts/MyEpicNFT.sol",
  "abi": [
    {
      "inputs": [],
      "stateMutability": "nonpayable",
      "type": "constructor"
    },
    {
      "anonymous": false,
      "inputs": [
        {
          "indexed": true,
          "internalType": "address",
          "name": "owner",
          "type": "address"
        },
        {
          "indexed": true,
          "internalType": "address",
          "name": "approved",
          "type": "address"
        },
        {
          "indexed": true,
          "internalType": "uint256",
          "name": "tokenId",
          "type": "uint256"
        }
      ],
      "name": "Approval",
      "type": "event"
    },
    {
      "anonymous": false,
      "inputs": [
        {
          "indexed": true,
          "internalType": "address",
          "name": "owner",
          "type": "address"
        },
        {
          "indexed": true,
          "internalType": "address",
          "name": "operator",
          "type": "address"
        },
        {
          "indexed": false,
          "internalType": "bool",
          "name": "approved",
          "type": "bool"
        }
      ],
      "name": "ApprovalForAll",
      "type": "event"
    },
    {
      "anonymous": false,
      "inputs": [
        {
          "indexed": false,
          "internalType": "address",
          "name": "sender",
          "type": "address"
        },
        {
          "indexed": false,
          "internalType": "uint256",
          "name": "tokenId",
          "type": "uint256"
        }
      ],
      "name": "NewEpicNFTMinted",
      "type": "event"
    },
    {
      "anonymous": false,
      "inputs": [
        {
          "indexed": true,
          "internalType": "address",
          "name": "from",
          "type": "address"
        },
        {
          "indexed": true,
          "internalType": "address",
          "name": "to",
          "type": "address"
        },
        {
          "indexed": true,
          "internalType": "uint256",
          "name": "tokenId",
          "type": "uint256"
        }
      ],
      "name": "Transfer",
      "type": "event"
    },
    {
      "inputs": [
        {
          "internalType": "address",
          "name": "to",
          "type": "address"
        },
        {
          "internalType": "uint256",
          "name": "tokenId",
          "type": "uint256"
        }
      ],
      "name": "approve",
      "outputs": [],
      "stateMutability": "nonpayable",
      "type": "function"
    },
    {
      "inputs": [
        {
          "internalType": "address",
          "name": "owner",
          "type": "address"
        }
      ],
      "name": "balanceOf",
      "outputs": [
        {
          "internalType": "uint256",
          "name": "",
          "type": "uint256"
        }
      ],
      "stateMutability": "view",
      "type": "function"
    },
    {
      "inputs": [
        {
          "internalType": "uint256",
          "name": "tokenId",
          "type": "uint256"
        }
      ],
      "name": "getApproved",
      "outputs": [
        {
          "internalType": "address",
          "name": "",
          "type": "address"
        }
      ],
      "stateMutability": "view",
      "type": "function"
    },
    {
      "inputs": [],
      "name": "getTotalNFTsMinted",
      "outputs": [
        {
          "internalType": "uint256",
          "name": "",
          "type": "uint256"
        }
      ],
      "stateMutability": "view",
      "type": "function"
    },
    {
      "inputs": [
        {
          "internalType": "address",
          "name": "owner",
          "type": "address"
        },
        {
          "internalType": "address",
          "name": "operator",
          "type": "address"
        }
      ],
      "name": "isApprovedForAll",
      "outputs": [
        {
          "internalType": "bool",
          "name": "",
          "type": "bool"
        }
      ],
      "stateMutability": "view",
      "type": "function"
    },
    {
      "inputs": [],
      "name": "makeAnEpicNFT",
      "outputs": [],
      "stateMutability": "nonpayable",
      "type": "function"
    },
    {
      "inputs": [],
      "name": "name",
      "outputs": [
        {
          "internalType": "string",
          "name": "",
          "type": "string"
        }
      ],
      "stateMutability": "view",
      "type": "function"
    },
    {
      "inputs": [
        {
          "internalType": "uint256",
          "name": "tokenId",
          "type": "uint256"
        }
      ],
      "name": "ownerOf",
      "outputs": [
        {
          "internalType": "address",
          "name": "",
          "type": "address"
        }
      ],
      "stateMutability": "view",
      "type": "function"
    },
    {
      "inputs": [
        {
          "internalType": "uint256",
          "name": "tokenId",
          "type": "uint256"
        }
      ],
      "name": "pickRandomColor",
      "outputs": [
        {
          "internalType": "string",
          "name": "",
          "type": "string"
        }
      ],
      "stateMutability": "view",
      "type": "function"
    },
    {
      "inputs": [
        {
          "internalType": "uint256",
          "name": "tokenId",
          "type": "uint256"
        }
      ],
      "name": "pickRandomFirstWord",
      "outputs": [
        {
          "internalType": "string",
          "name": "",
          "type": "string"
        }
      ],
      "stateMutability": "view",
      "type": "function"
    },
    {
      "inputs": [
        {
          "internalType": "uint256",
          "name": "tokenId",
          "type": "uint256"
        }
      ],
      "name": "pickRandomSecondWord",
      "outputs": [
        {
          "internalType": "string",
          "name": "",
          "type": "string"
        }
      ],
      "stateMutability": "view",
      "type": "function"
    },
    {
      "inputs": [
        {
          "internalType": "uint256",
          "name": "tokenId",
          "type": "uint256"
        }
      ],
      "name": "pickRandomThirdWord",
      "outputs": [
        {
          "internalType": "string",
          "name": "",
          "type": "string"
        }
      ],
      "stateMutability": "view",
      "type": "function"
    },
    {
      "inputs": [
        {
          "internalType": "address",
          "name": "from",
          "type": "address"
        },
        {
          "internalType": "address",
          "name": "to",
          "type": "address"
        },
        {
          "internalType": "uint256",
          "name": "tokenId",
          "type": "uint256"
        }
      ],
      "name": "safeTransferFrom",
      "outputs": [],
      "stateMutability": "nonpayable",
      "type": "function"
    },
    {
      "inputs": [
        {
          "internalType": "address",
          "name": "from",
          "type": "address"
        },
        {
          "internalType": "address",
          "name": "to",
          "type": "address"
        },
        {
          "internalType": "uint256",
          "name": "tokenId",
          "type": "uint256"
        },
        {
          "internalType": "bytes",
          "name": "_data",
          "type": "bytes"
        }
      ],
      "name": "safeTransferFrom",
      "outputs": [],
      "stateMutability": "nonpayable",
      "type": "function"
    },
    {
      "inputs": [
        {
          "internalType": "address",
          "name": "operator",
          "type": "address"
        },
        {
          "internalType": "bool",
          "name": "approved",
          "type": "bool"
        }
      ],
      "name": "setApprovalForAll",
      "outputs": [],
      "stateMutability": "nonpayable",
      "type": "function"
    },
    {
      "inputs": [
        {
          "internalType": "bytes4",
          "name": "interfaceId",
          "type": "bytes4"
        }
      ],
      "name": "supportsInterface",
      "outputs": [
        {
          "internalType": "bool",
          "name": "",
          "type": "bool"
        }
      ],
      "stateMutability": "view",
      "type": "function"
    },
    {
      "inputs": [],
      "name": "symbol",
      "outputs": [
        {
          "internalType": "string",
          "name": "",
          "type": "string"
        }
      ],
      "stateMutability": "view",
      "type": "function"
    },
    {
      "inputs": [
        {
          "internalType": "uint256",
          "name": "tokenId",
          "type": "uint256"
        }
      ],
      "name": "tokenURI",
      "outputs": [
        {
          "internalType": "string",
          "name": "",
          "type": "string"
        }
      ],
      "stateMutability": "view",
      "type": "function"
    },
    {
      "inputs": [
        {
          "internalType": "address",
          "name": "from",
          "type": "address"
        },
        {
          "internalType": "address",
          "name": "to",
          "type": "address"
        },
        {
          "internalType": "uint256",
          "name": "tokenId",
          "type": "uint256"
        }
      ],
      "name": "transferFrom",
      "outputs": [],
      "stateMutability": "nonpayable",
      "type": "function"
    }
  ],
  "bytecode": "0x608060405260405180610100016040528060d38152602001620046dc60d3913960089080519060200190620000369291906200082c565b50604051806080016040528060568152602001620047af6056913960099080519060200190620000689291906200082c565b506040518060c001604052806040518060400160405280600581526020017f616d696e6500000000000000000000000000000000000000000000000000000081525081526020016040518060400160405280600581526020017f6b616e796500000000000000000000000000000000000000000000000000000081525081526020016040518060400160405280600781526020017f697a766e7667690000000000000000000000000000000000000000000000000081525081526020016040518060400160405280600881526020017f6b656e647269636b00000000000000000000000000000000000000000000000081525081526020016040518060400160405280600481526020017f636f6c650000000000000000000000000000000000000000000000000000000081525081526020016040518060400160405280600781526020017f656d696e6d656e00000000000000000000000000000000000000000000000000815250815250600a906006620001e6929190620008bd565b506040518060c001604052806040518060400160405280600681526020017f736f63636572000000000000000000000000000000000000000000000000000081525081526020016040518060400160405280600681526020017f74656e6e6973000000000000000000000000000000000000000000000000000081525081526020016040518060400160405280600881526020017f6261736562616c6c00000000000000000000000000000000000000000000000081525081526020016040518060400160405280600381526020017f6d6f6d000000000000000000000000000000000000000000000000000000000081525081526020016040518060400160405280600381526020017f646f67000000000000000000000000000000000000000000000000000000000081525081526020016040518060400160405280600881526020017f666f6f7462616c6c000000000000000000000000000000000000000000000000815250815250600b90600662000364929190620008bd565b506040518060c001604052806040518060400160405280600681526020017f617567757374000000000000000000000000000000000000000000000000000081525081526020016040518060400160405280600581526020017f686f74656c00000000000000000000000000000000000000000000000000000081525081526020016040518060400160405280600581526020017f66616e746100000000000000000000000000000000000000000000000000000081525081526020016040518060400160405280600881526020017f70726f677265737300000000000000000000000000000000000000000000000081525081526020016040518060400160405280600481526020017f796f796f0000000000000000000000000000000000000000000000000000000081525081526020016040518060400160405280600581526020017f736f636b73000000000000000000000000000000000000000000000000000000815250815250600c906006620004e2929190620008bd565b506040518060c001604052806040518060400160405280600381526020017f726564000000000000000000000000000000000000000000000000000000000081525081526020016040518060400160405280600781526020017f233038433241380000000000000000000000000000000000000000000000000081525081526020016040518060400160405280600581526020017f626c61636b00000000000000000000000000000000000000000000000000000081525081526020016040518060400160405280600681526020017f79656c6c6f77000000000000000000000000000000000000000000000000000081525081526020016040518060400160405280600481526020017f626c75650000000000000000000000000000000000000000000000000000000081525081526020016040518060400160405280600581526020017f677265656e000000000000000000000000000000000000000000000000000000815250815250600d90600662000660929190620008bd565b503480156200066e57600080fd5b506040518060400160405280600a81526020017f4c6f50666569664e4654000000000000000000000000000000000000000000008152506040518060400160405280600781526020017f4c4f5046454946000000000000000000000000000000000000000000000000008152508160009080519060200190620006f39291906200082c565b5080600190805190602001906200070c9291906200082c565b5050506200075a6040518060400160405280601981526020017f54686973206973206d79204e465420436f6e74726163742121000000000000008152506200076060201b620013e11760201c565b62000ade565b6200080081604051602401620007779190620009f2565b6040516020818303038152906040527f41304fac000000000000000000000000000000000000000000000000000000007bffffffffffffffffffffffffffffffffffffffffffffffffffffffff19166020820180517bffffffffffffffffffffffffffffffffffffffffffffffffffffffff83818316178352505050506200080360201b60201c565b50565b60008151905060006a636f6e736f6c652e6c6f679050602083016000808483855afa5050505050565b8280546200083a9062000a68565b90600052602060002090601f0160209004810192826200085e5760008555620008aa565b82601f106200087957805160ff1916838001178555620008aa565b82800160010185558215620008aa579182015b82811115620008a95782518255916020019190600101906200088c565b5b509050620008b9919062000924565b5090565b82805482825590600052602060002090810192821562000911579160200282015b8281111562000910578251829080519060200190620008ff9291906200082c565b5091602001919060010190620008de565b5b50905062000920919062000943565b5090565b5b808211156200093f57600081600090555060010162000925565b5090565b5b808211156200096757600081816200095d91906200096b565b5060010162000944565b5090565b508054620009799062000a68565b6000825580601f106200098d5750620009ae565b601f016020900490600052602060002090810190620009ad919062000924565b5b50565b6000620009be8262000a16565b620009ca818562000a21565b9350620009dc81856020860162000a32565b620009e78162000acd565b840191505092915050565b6000602082019050818103600083015262000a0e8184620009b1565b905092915050565b600081519050919050565b600082825260208201905092915050565b60005b8381101562000a5257808201518184015260208101905062000a35565b8381111562000a62576000848401525b50505050565b6000600282049050600182168062000a8157607f821691505b6020821081141562000a985762000a9762000a9e565b5b50919050565b7f4e487b7100000000000000000000000000000000000000000000000000000000600052602260045260246000fd5b6000601f19601f8301169050919050565b613bee8062000aee6000396000f3fe608060405234801561001057600080fd5b50600436106101215760003560e01c806370a08231116100ad578063b88d4fde11610071578063b88d4fde14610340578063c575757a1461035c578063c87b56dd1461038c578063de9d132f146103bc578063e985e9c5146103c657610121565b806370a082311461028857806395d89b41146102b8578063a22cb465146102d6578063b187301f146102f2578063b4c3b8be1461032257610121565b806323b872dd116100f457806323b872dd146101c05780632de38d68146101dc57806342842e0e1461020c578063514dc8c6146102285780636352211e1461025857610121565b806301ffc9a71461012657806306fdde0314610156578063081812fc14610174578063095ea7b3146101a4575b600080fd5b610140600480360381019061013b9190612674565b6103f6565b60405161014d9190612ddd565b60405180910390f35b61015e6104d8565b60405161016b9190612df8565b60405180910390f35b61018e600480360381019061018991906126c6565b61056a565b60405161019b9190612d4d565b60405180910390f35b6101be60048036038101906101b99190612638565b6105ef565b005b6101da60048036038101906101d59190612532565b610707565b005b6101f660048036038101906101f191906126c6565b610767565b6040516102039190612df8565b60405180910390f35b61022660048036038101906102219190612532565b610885565b005b610242600480360381019061023d91906126c6565b6108a5565b60405161024f9190612df8565b60405180910390f35b610272600480360381019061026d91906126c6565b6109c3565b60405161027f9190612d4d565b60405180910390f35b6102a2600480360381019061029d91906124cd565b610a75565b6040516102af9190613058565b60405180910390f35b6102c0610b2d565b6040516102cd9190612df8565b60405180910390f35b6102f060048036038101906102eb91906125fc565b610bbf565b005b61030c600480360381019061030791906126c6565b610d40565b6040516103199190612df8565b60405180910390f35b61032a610e5e565b6040516103379190613058565b60405180910390f35b61035a60048036038101906103559190612581565b610e74565b005b610376600480360381019061037191906126c6565b610ed6565b6040516103839190612df8565b60405180910390f35b6103a660048036038101906103a191906126c6565b610ff4565b6040516103b39190612df8565b60405180910390f35b6103c4611146565b005b6103e060048036038101906103db91906124f6565b61134d565b6040516103ed9190612ddd565b60405180910390f35b60007f80ac58cd000000000000000000000000000000000000000000000000000000007bffffffffffffffffffffffffffffffffffffffffffffffffffffffff1916827bffffffffffffffffffffffffffffffffffffffffffffffffffffffff191614806104c157507f5b5e139f000000000000000000000000000000000000000000000000000000007bffffffffffffffffffffffffffffffffffffffffffffffffffffffff1916827bffffffffffffffffffffffffffffffffffffffffffffffffffffffff1916145b806104d157506104d08261147a565b5b9050919050565b6060600080546104e7906132ec565b80601f0160208091040260200160405190810160405280929190818152602001828054610513906132ec565b80156105605780601f1061053557610100808354040283529160200191610560565b820191906000526020600020905b81548152906001019060200180831161054357829003601f168201915b5050505050905090565b6000610575826114e4565b6105b4576040517f08c379a00000000000000000000000000000000000000000000000000000000081526004016105ab90612fb8565b60405180910390fd5b6004600083815260200190815260200160002060009054906101000a900473ffffffffffffffffffffffffffffffffffffffff169050919050565b60006105fa826109c3565b90508073ffffffffffffffffffffffffffffffffffffffff168373ffffffffffffffffffffffffffffffffffffffff16141561066b576040517f08c379a000000000000000000000000000000000000000000000000000000000815260040161066290613018565b60405180910390fd5b8073ffffffffffffffffffffffffffffffffffffffff1661068a611550565b73ffffffffffffffffffffffffffffffffffffffff1614806106b957506106b8816106b3611550565b61134d565b5b6106f8576040517f08c379a00000000000000000000000000000000000000000000000000000000081526004016106ef90612ef8565b60405180910390fd5b6107028383611558565b505050565b610718610712611550565b82611611565b610757576040517f08c379a000000000000000000000000000000000000000000000000000000000815260040161074e90613038565b60405180910390fd5b6107628383836116ef565b505050565b6060600061079b6107778461194b565b6040516020016107879190612ce7565b604051602081830303815290604052611af8565b9050600a80549050816107ae9190613398565b9050600a81815481106107ea577f4e487b7100000000000000000000000000000000000000000000000000000000600052603260045260246000fd5b9060005260206000200180546107ff906132ec565b80601f016020809104026020016040519081016040528092919081815260200182805461082b906132ec565b80156108785780601f1061084d57610100808354040283529160200191610878565b820191906000526020600020905b81548152906001019060200180831161085b57829003601f168201915b5050505050915050919050565b6108a083838360405180602001604052806000815250610e74565b505050565b606060006108d96108b58461194b565b6040516020016108c59190612d2b565b604051602081830303815290604052611af8565b9050600d80549050816108ec9190613398565b9050600d8181548110610928577f4e487b7100000000000000000000000000000000000000000000000000000000600052603260045260246000fd5b90600052602060002001805461093d906132ec565b80601f0160208091040260200160405190810160405280929190818152602001828054610969906132ec565b80156109b65780601f1061098b576101008083540402835291602001916109b6565b820191906000526020600020905b81548152906001019060200180831161099957829003601f168201915b5050505050915050919050565b6000806002600084815260200190815260200160002060009054906101000a900473ffffffffffffffffffffffffffffffffffffffff169050600073ffffffffffffffffffffffffffffffffffffffff168173ffffffffffffffffffffffffffffffffffffffff161415610a6c576040517f08c379a0000000000000000000000000000000000000000000000000000000008152600401610a6390612f38565b60405180910390fd5b80915050919050565b60008073ffffffffffffffffffffffffffffffffffffffff168273ffffffffffffffffffffffffffffffffffffffff161415610ae6576040517f08c379a0000000000000000000000000000000000000000000000000000000008152600401610add90612f18565b60405180910390fd5b600360008373ffffffffffffffffffffffffffffffffffffffff1673ffffffffffffffffffffffffffffffffffffffff168152602001908152602001600020549050919050565b606060018054610b3c906132ec565b80601f0160208091040260200160405190810160405280929190818152602001828054610b68906132ec565b8015610bb55780601f10610b8a57610100808354040283529160200191610bb5565b820191906000526020600020905b815481529060010190602001808311610b9857829003601f168201915b5050505050905090565b610bc7611550565b73ffffffffffffffffffffffffffffffffffffffff168273ffffffffffffffffffffffffffffffffffffffff161415610c35576040517f08c379a0000000000000000000000000000000000000000000000000000000008152600401610c2c90612eb8565b60405180910390fd5b8060056000610c42611550565b73ffffffffffffffffffffffffffffffffffffffff1673ffffffffffffffffffffffffffffffffffffffff16815260200190815260200160002060008473ffffffffffffffffffffffffffffffffffffffff1673ffffffffffffffffffffffffffffffffffffffff16815260200190815260200160002060006101000a81548160ff0219169083151502179055508173ffffffffffffffffffffffffffffffffffffffff16610cef611550565b73ffffffffffffffffffffffffffffffffffffffff167f17307eab39ab6107e8899845ad3d59bd9653f200f220920489ca2b5937696c3183604051610d349190612ddd565b60405180910390a35050565b60606000610d74610d508461194b565b604051602001610d609190612c80565b604051602081830303815290604052611af8565b9050600b8054905081610d879190613398565b9050600b8181548110610dc3577f4e487b7100000000000000000000000000000000000000000000000000000000600052603260045260246000fd5b906000526020600020018054610dd8906132ec565b80601f0160208091040260200160405190810160405280929190818152602001828054610e04906132ec565b8015610e515780601f10610e2657610100808354040283529160200191610e51565b820191906000526020600020905b815481529060010190602001808311610e3457829003601f168201915b5050505050915050919050565b600080610e6b6007611b2b565b90508091505090565b610e85610e7f611550565b83611611565b610ec4576040517f08c379a0000000000000000000000000000000000000000000000000000000008152600401610ebb90613038565b60405180910390fd5b610ed084848484611b39565b50505050565b60606000610f0a610ee68461194b565b604051602001610ef69190612c5e565b604051602081830303815290604052611af8565b9050600c8054905081610f1d9190613398565b9050600c8181548110610f59577f4e487b7100000000000000000000000000000000000000000000000000000000600052603260045260246000fd5b906000526020600020018054610f6e906132ec565b80601f0160208091040260200160405190810160405280929190818152602001828054610f9a906132ec565b8015610fe75780601f10610fbc57610100808354040283529160200191610fe7565b820191906000526020600020905b815481529060010190602001808311610fca57829003601f168201915b5050505050915050919050565b6060610fff826114e4565b61103e576040517f08c379a000000000000000000000000000000000000000000000000000000000815260040161103590612f98565b60405180910390fd5b600060066000848152602001908152602001600020805461105e906132ec565b80601f016020809104026020016040519081016040528092919081815260200182805461108a906132ec565b80156110d75780601f106110ac576101008083540402835291602001916110d7565b820191906000526020600020905b8154815290600101906020018083116110ba57829003601f168201915b5050505050905060006110e8611b95565b90506000815114156110fe578192505050611141565b60008251111561113357808260405160200161111b929190612bc0565b60405160208183030381529060405292505050611141565b61113c84611bac565b925050505b919050565b60006111526007611b2b565b90506032811061116157600080fd5b600061116c82610767565b9050600061117983610d40565b9050600061118684610ed6565b9050600083838360405160200161119f93929190612be4565b604051602081830303815290604052905060006111bb866108a5565b905060006008826009856040516020016111d89493929190612c15565b6040516020818303038152906040529050600061121d846111f884611c53565b604051602001611209929190612ca2565b604051602081830303815290604052611c53565b90506000816040516020016112329190612d09565b60405160208183030381529060405290506112816040518060400160405280601581526020017f0a2d2d2d2d2d2d2d2d2d2d2d2d2d2d2d2d2d2d2d2d00000000000000000000008152506113e1565b61128a816113e1565b6112c86040518060400160405280601581526020017f2d2d2d2d2d2d2d2d2d2d2d2d2d2d2d2d2d2d2d2d0a00000000000000000000008152506113e1565b6112d2338a611e11565b6112dc8982611e2f565b6112e66007611ea3565b611309604051806060016040528060258152602001613b54602591398a33611eb9565b7febb98688741ffa4c7589bf325de30cf7becb63de567842e1ccdb6cb949fdc82c338a60405161133a929190612db4565b60405180910390a1505050505050505050565b6000600560008473ffffffffffffffffffffffffffffffffffffffff1673ffffffffffffffffffffffffffffffffffffffff16815260200190815260200160002060008373ffffffffffffffffffffffffffffffffffffffff1673ffffffffffffffffffffffffffffffffffffffff16815260200190815260200160002060009054906101000a900460ff16905092915050565b611477816040516024016113f59190612df8565b6040516020818303038152906040527f41304fac000000000000000000000000000000000000000000000000000000007bffffffffffffffffffffffffffffffffffffffffffffffffffffffff19166020820180517bffffffffffffffffffffffffffffffffffffffffffffffffffffffff8381831617835250505050611f58565b50565b60007f01ffc9a7000000000000000000000000000000000000000000000000000000007bffffffffffffffffffffffffffffffffffffffffffffffffffffffff1916827bffffffffffffffffffffffffffffffffffffffffffffffffffffffff1916149050919050565b60008073ffffffffffffffffffffffffffffffffffffffff166002600084815260200190815260200160002060009054906101000a900473ffffffffffffffffffffffffffffffffffffffff1673ffffffffffffffffffffffffffffffffffffffff1614159050919050565b600033905090565b816004600083815260200190815260200160002060006101000a81548173ffffffffffffffffffffffffffffffffffffffff021916908373ffffffffffffffffffffffffffffffffffffffff160217905550808273ffffffffffffffffffffffffffffffffffffffff166115cb836109c3565b73ffffffffffffffffffffffffffffffffffffffff167f8c5be1e5ebec7d5bd14f71427d1e84f3dd0314c0f7b2291e5b200ac8c7c3b92560405160405180910390a45050565b600061161c826114e4565b61165b576040517f08c379a000000000000000000000000000000000000000000000000000000000815260040161165290612ed8565b60405180910390fd5b6000611666836109c3565b90508073ffffffffffffffffffffffffffffffffffffffff168473ffffffffffffffffffffffffffffffffffffffff1614806116d557508373ffffffffffffffffffffffffffffffffffffffff166116bd8461056a565b73ffffffffffffffffffffffffffffffffffffffff16145b806116e657506116e5818561134d565b5b91505092915050565b8273ffffffffffffffffffffffffffffffffffffffff1661170f826109c3565b73ffffffffffffffffffffffffffffffffffffffff1614611765576040517f08c379a000000000000000000000000000000000000000000000000000000000815260040161175c90612fd8565b60405180910390fd5b600073ffffffffffffffffffffffffffffffffffffffff168273ffffffffffffffffffffffffffffffffffffffff1614156117d5576040517f08c379a00000000000000000000000000000000000000000000000000000000081526004016117cc90612e98565b60405180910390fd5b6117e0838383611f81565b6117eb600082611558565b6001600360008573ffffffffffffffffffffffffffffffffffffffff1673ffffffffffffffffffffffffffffffffffffffff168152602001908152602001600020600082825461183b9190613202565b925050819055506001600360008473ffffffffffffffffffffffffffffffffffffffff1673ffffffffffffffffffffffffffffffffffffffff16815260200190815260200160002060008282546118929190613121565b92505081905550816002600083815260200190815260200160002060006101000a81548173ffffffffffffffffffffffffffffffffffffffff021916908373ffffffffffffffffffffffffffffffffffffffff160217905550808273ffffffffffffffffffffffffffffffffffffffff168473ffffffffffffffffffffffffffffffffffffffff167fddf252ad1be2c89b69c2b068fc378daa952ba7f163c4a11628f55a4df523b3ef60405160405180910390a4505050565b60606000821415611993576040518060400160405280600181526020017f30000000000000000000000000000000000000000000000000000000000000008152509050611af3565b600082905060005b600082146119c55780806119ae9061334f565b915050600a826119be9190613177565b915061199b565b60008167ffffffffffffffff811115611a07577f4e487b7100000000000000000000000000000000000000000000000000000000600052604160045260246000fd5b6040519080825280601f01601f191660200182016040528015611a395781602001600182028036833780820191505090505b5090505b60008514611aec57600182611a529190613202565b9150600a85611a619190613398565b6030611a6d9190613121565b60f81b818381518110611aa9577f4e487b7100000000000000000000000000000000000000000000000000000000600052603260045260246000fd5b60200101907effffffffffffffffffffffffffffffffffffffffffffffffffffffffffffff1916908160001a905350600a85611ae59190613177565b9450611a3d565b8093505050505b919050565b600081604051602001611b0b9190612ba9565b6040516020818303038152906040528051906020012060001c9050919050565b600081600001549050919050565b611b448484846116ef565b611b5084848484611f86565b611b8f576040517f08c379a0000000000000000000000000000000000000000000000000000000008152600401611b8690612e58565b60405180910390fd5b50505050565b606060405180602001604052806000815250905090565b6060611bb7826114e4565b611bf6576040517f08c379a0000000000000000000000000000000000000000000000000000000008152600401611bed90612ff8565b60405180910390fd5b6000611c00611b95565b90506000815111611c205760405180602001604052806000815250611c4b565b80611c2a8461194b565b604051602001611c3b929190612bc0565b6040516020818303038152906040525b915050919050565b60606000825190506000811415611c7c5760405180602001604052806000815250915050611e0c565b60006003600283611c8d9190613121565b611c979190613177565b6004611ca391906131a8565b90506000602082611cb49190613121565b67ffffffffffffffff811115611cf3577f4e487b7100000000000000000000000000000000000000000000000000000000600052604160045260246000fd5b6040519080825280601f01601f191660200182016040528015611d255781602001600182028036833780820191505090505b5090506000604051806060016040528060408152602001613b79604091399050600181016020830160005b86811015611dc95760038101905062ffffff818a015116603f8160121c168401518060081b905060ff603f83600c1c1686015116810190508060081b905060ff603f8360061c1686015116810190508060081b905060ff603f831686015116810190508060e01b90508084526004840193505050611d50565b506003860660018114611de35760028114611df357611dfe565b613d3d60f01b6002830352611dfe565b603d60f81b60018303525b508484525050819450505050505b919050565b611e2b82826040518060200160405280600081525061211d565b5050565b611e38826114e4565b611e77576040517f08c379a0000000000000000000000000000000000000000000000000000000008152600401611e6e90612f58565b60405180910390fd5b80600660008481526020019081526020016000209080519060200190611e9e929190612359565b505050565b6001816000016000828254019250508190555050565b611f53838383604051602401611ed193929190612e1a565b6040516020818303038152906040527fe3849f79000000000000000000000000000000000000000000000000000000007bffffffffffffffffffffffffffffffffffffffffffffffffffffffff19166020820180517bffffffffffffffffffffffffffffffffffffffffffffffffffffffff8381831617835250505050611f58565b505050565b60008151905060006a636f6e736f6c652e6c6f679050602083016000808483855afa5050505050565b505050565b6000611fa78473ffffffffffffffffffffffffffffffffffffffff16612178565b15612110578373ffffffffffffffffffffffffffffffffffffffff1663150b7a02611fd0611550565b8786866040518563ffffffff1660e01b8152600401611ff29493929190612d68565b602060405180830381600087803b15801561200c57600080fd5b505af192505050801561203d57506040513d601f19601f8201168201806040525081019061203a919061269d565b60015b6120c0573d806000811461206d576040519150601f19603f3d011682016040523d82523d6000602084013e612072565b606091505b506000815114156120b8576040517f08c379a00000000000000000000000000000000000000000000000000000000081526004016120af90612e58565b60405180910390fd5b805181602001fd5b63150b7a0260e01b7bffffffffffffffffffffffffffffffffffffffffffffffffffffffff1916817bffffffffffffffffffffffffffffffffffffffffffffffffffffffff191614915050612115565b600190505b949350505050565b612127838361218b565b6121346000848484611f86565b612173576040517f08c379a000000000000000000000000000000000000000000000000000000000815260040161216a90612e58565b60405180910390fd5b505050565b600080823b905060008111915050919050565b600073ffffffffffffffffffffffffffffffffffffffff168273ffffffffffffffffffffffffffffffffffffffff1614156121fb576040517f08c379a00000000000000000000000000000000000000000000000000000000081526004016121f290612f78565b60405180910390fd5b612204816114e4565b15612244576040517f08c379a000000000000000000000000000000000000000000000000000000000815260040161223b90612e78565b60405180910390fd5b61225060008383611f81565b6001600360008473ffffffffffffffffffffffffffffffffffffffff1673ffffffffffffffffffffffffffffffffffffffff16815260200190815260200160002060008282546122a09190613121565b92505081905550816002600083815260200190815260200160002060006101000a81548173ffffffffffffffffffffffffffffffffffffffff021916908373ffffffffffffffffffffffffffffffffffffffff160217905550808273ffffffffffffffffffffffffffffffffffffffff16600073ffffffffffffffffffffffffffffffffffffffff167fddf252ad1be2c89b69c2b068fc378daa952ba7f163c4a11628f55a4df523b3ef60405160405180910390a45050565b828054612365906132ec565b90600052602060002090601f01602090048101928261238757600085556123ce565b82601f106123a057805160ff19168380011785556123ce565b828001600101855582156123ce579182015b828111156123cd5782518255916020019190600101906123b2565b5b5090506123db91906123df565b5090565b5b808211156123f85760008160009055506001016123e0565b5090565b600061240f61240a84613098565b613073565b90508281526020810184848401111561242757600080fd5b6124328482856132aa565b509392505050565b60008135905061244981613af7565b92915050565b60008135905061245e81613b0e565b92915050565b60008135905061247381613b25565b92915050565b60008151905061248881613b25565b92915050565b600082601f83011261249f57600080fd5b81356124af8482602086016123fc565b91505092915050565b6000813590506124c781613b3c565b92915050565b6000602082840312156124df57600080fd5b60006124ed8482850161243a565b91505092915050565b6000806040838503121561250957600080fd5b60006125178582860161243a565b92505060206125288582860161243a565b9150509250929050565b60008060006060848603121561254757600080fd5b60006125558682870161243a565b93505060206125668682870161243a565b9250506040612577868287016124b8565b9150509250925092565b6000806000806080858703121561259757600080fd5b60006125a58782880161243a565b94505060206125b68782880161243a565b93505060406125c7878288016124b8565b925050606085013567ffffffffffffffff8111156125e457600080fd5b6125f08782880161248e565b91505092959194509250565b6000806040838503121561260f57600080fd5b600061261d8582860161243a565b925050602061262e8582860161244f565b9150509250929050565b6000806040838503121561264b57600080fd5b60006126598582860161243a565b925050602061266a858286016124b8565b9150509250929050565b60006020828403121561268657600080fd5b600061269484828501612464565b91505092915050565b6000602082840312156126af57600080fd5b60006126bd84828501612479565b91505092915050565b6000602082840312156126d857600080fd5b60006126e6848285016124b8565b91505092915050565b6126f881613236565b82525050565b61270781613248565b82525050565b6000612718826130de565b61272281856130f4565b93506127328185602086016132b9565b61273b81613485565b840191505092915050565b6000612751826130e9565b61275b8185613105565b935061276b8185602086016132b9565b61277481613485565b840191505092915050565b600061278a826130e9565b6127948185613116565b93506127a48185602086016132b9565b80840191505092915050565b600081546127bd816132ec565b6127c78186613116565b945060018216600081146127e257600181146127f357612826565b60ff19831686528186019350612826565b6127fc856130c9565b60005b8381101561281e578154818901526001820191506020810190506127ff565b838801955050505b50505092915050565b600061283c603283613105565b915061284782613496565b604082019050919050565b600061285f601c83613105565b915061286a826134e5565b602082019050919050565b6000612882600a83613116565b915061288d8261350e565b600a82019050919050565b60006128a5602483613105565b91506128b082613537565b604082019050919050565b60006128c8601983613105565b91506128d382613586565b602082019050919050565b60006128eb606383613116565b91506128f6826135af565b606382019050919050565b600061290e600b83613116565b91506129198261364a565b600b82019050919050565b6000612931602c83613105565b915061293c82613673565b604082019050919050565b6000612954600d83613116565b915061295f826136c2565b600d82019050919050565b6000612977603883613105565b9150612982826136eb565b604082019050919050565b600061299a602a83613105565b91506129a58261373a565b604082019050919050565b60006129bd602983613105565b91506129c882613789565b604082019050919050565b60006129e0602e83613105565b91506129eb826137d8565b604082019050919050565b6000612a03600283613116565b9150612a0e82613827565b600282019050919050565b6000612a26602083613105565b9150612a3182613850565b602082019050919050565b6000612a49603183613105565b9150612a5482613879565b604082019050919050565b6000612a6c602c83613105565b9150612a77826138c8565b604082019050919050565b6000612a8f602983613105565b9150612a9a82613917565b604082019050919050565b6000612ab2602f83613105565b9150612abd82613966565b604082019050919050565b6000612ad5600a83613116565b9150612ae0826139b5565b600a82019050919050565b6000612af8602183613105565b9150612b03826139de565b604082019050919050565b6000612b1b600a83613116565b9150612b2682613a2d565b600a82019050919050565b6000612b3e601d83613116565b9150612b4982613a56565b601d82019050919050565b6000612b61603183613105565b9150612b6c82613a7f565b604082019050919050565b6000612b84600583613116565b9150612b8f82613ace565b600582019050919050565b612ba3816132a0565b82525050565b6000612bb5828461277f565b915081905092915050565b6000612bcc828561277f565b9150612bd8828461277f565b91508190509392505050565b6000612bf0828661277f565b9150612bfc828561277f565b9150612c08828461277f565b9150819050949350505050565b6000612c2182876127b0565b9150612c2d828661277f565b9150612c3982856127b0565b9150612c45828461277f565b9150612c5082612947565b915081905095945050505050565b6000612c6982612875565b9150612c75828461277f565b915081905092915050565b6000612c8b82612901565b9150612c97828461277f565b915081905092915050565b6000612cad82612ac8565b9150612cb9828561277f565b9150612cc4826128de565b9150612cd0828461277f565b9150612cdb826129f6565b91508190509392505050565b6000612cf282612b0e565b9150612cfe828461277f565b915081905092915050565b6000612d1482612b31565b9150612d20828461277f565b915081905092915050565b6000612d3682612b77565b9150612d42828461277f565b915081905092915050565b6000602082019050612d6260008301846126ef565b92915050565b6000608082019050612d7d60008301876126ef565b612d8a60208301866126ef565b612d976040830185612b9a565b8181036060830152612da9818461270d565b905095945050505050565b6000604082019050612dc960008301856126ef565b612dd66020830184612b9a565b9392505050565b6000602082019050612df260008301846126fe565b92915050565b60006020820190508181036000830152612e128184612746565b905092915050565b60006060820190508181036000830152612e348186612746565b9050612e436020830185612b9a565b612e5060408301846126ef565b949350505050565b60006020820190508181036000830152612e718161282f565b9050919050565b60006020820190508181036000830152612e9181612852565b9050919050565b60006020820190508181036000830152612eb181612898565b9050919050565b60006020820190508181036000830152612ed1816128bb565b9050919050565b60006020820190508181036000830152612ef181612924565b9050919050565b60006020820190508181036000830152612f118161296a565b9050919050565b60006020820190508181036000830152612f318161298d565b9050919050565b60006020820190508181036000830152612f51816129b0565b9050919050565b60006020820190508181036000830152612f71816129d3565b9050919050565b60006020820190508181036000830152612f9181612a19565b9050919050565b60006020820190508181036000830152612fb181612a3c565b9050919050565b60006020820190508181036000830152612fd181612a5f565b9050919050565b60006020820190508181036000830152612ff181612a82565b9050919050565b6000602082019050818103600083015261301181612aa5565b9050919050565b6000602082019050818103600083015261303181612aeb565b9050919050565b6000602082019050818103600083015261305181612b54565b9050919050565b600060208201905061306d6000830184612b9a565b92915050565b600061307d61308e565b9050613089828261331e565b919050565b6000604051905090565b600067ffffffffffffffff8211156130b3576130b2613456565b5b6130bc82613485565b9050602081019050919050565b60008190508160005260206000209050919050565b600081519050919050565b600081519050919050565b600082825260208201905092915050565b600082825260208201905092915050565b600081905092915050565b600061312c826132a0565b9150613137836132a0565b9250827fffffffffffffffffffffffffffffffffffffffffffffffffffffffffffffffff0382111561316c5761316b6133c9565b5b828201905092915050565b6000613182826132a0565b915061318d836132a0565b92508261319d5761319c6133f8565b5b828204905092915050565b60006131b3826132a0565b91506131be836132a0565b9250817fffffffffffffffffffffffffffffffffffffffffffffffffffffffffffffffff04831182151516156131f7576131f66133c9565b5b828202905092915050565b600061320d826132a0565b9150613218836132a0565b92508282101561322b5761322a6133c9565b5b828203905092915050565b600061324182613280565b9050919050565b60008115159050919050565b60007fffffffff0000000000000000000000000000000000000000000000000000000082169050919050565b600073ffffffffffffffffffffffffffffffffffffffff82169050919050565b6000819050919050565b82818337600083830152505050565b60005b838110156132d75780820151818401526020810190506132bc565b838111156132e6576000848401525b50505050565b6000600282049050600182168061330457607f821691505b6020821081141561331857613317613427565b5b50919050565b61332782613485565b810181811067ffffffffffffffff8211171561334657613345613456565b5b80604052505050565b600061335a826132a0565b91507fffffffffffffffffffffffffffffffffffffffffffffffffffffffffffffffff82141561338d5761338c6133c9565b5b600182019050919050565b60006133a3826132a0565b91506133ae836132a0565b9250826133be576133bd6133f8565b5b828206905092915050565b7f4e487b7100000000000000000000000000000000000000000000000000000000600052601160045260246000fd5b7f4e487b7100000000000000000000000000000000000000000000000000000000600052601260045260246000fd5b7f4e487b7100000000000000000000000000000000000000000000000000000000600052602260045260246000fd5b7f4e487b7100000000000000000000000000000000000000000000000000000000600052604160045260246000fd5b6000601f19601f8301169050919050565b7f4552433732313a207472616e7366657220746f206e6f6e20455243373231526560008201527f63656976657220696d706c656d656e7465720000000000000000000000000000602082015250565b7f4552433732313a20746f6b656e20616c7265616479206d696e74656400000000600082015250565b7f54484952445f574f524400000000000000000000000000000000000000000000600082015250565b7f4552433732313a207472616e7366657220746f20746865207a65726f2061646460008201527f7265737300000000000000000000000000000000000000000000000000000000602082015250565b7f4552433732313a20617070726f766520746f2063616c6c657200000000000000600082015250565b7f222c20226465736372697074696f6e223a20224120686967686c79206163636c60008201527f61696d656420636f6c6c656374696f6e206f6620737175617265732e222c202260208201527f696d616765223a2022646174613a696d6167652f7376672b786d6c3b6261736560408201527f36342c0000000000000000000000000000000000000000000000000000000000606082015250565b7f5345434f4e445f574f5244000000000000000000000000000000000000000000600082015250565b7f4552433732313a206f70657261746f7220717565727920666f72206e6f6e657860008201527f697374656e7420746f6b656e0000000000000000000000000000000000000000602082015250565b7f3c2f746578743e3c2f7376673e00000000000000000000000000000000000000600082015250565b7f4552433732313a20617070726f76652063616c6c6572206973206e6f74206f7760008201527f6e6572206e6f7220617070726f76656420666f7220616c6c0000000000000000602082015250565b7f4552433732313a2062616c616e636520717565727920666f7220746865207a6560008201527f726f206164647265737300000000000000000000000000000000000000000000602082015250565b7f4552433732313a206f776e657220717565727920666f72206e6f6e657869737460008201527f656e7420746f6b656e0000000000000000000000000000000000000000000000602082015250565b7f45524337323155524953746f726167653a2055524920736574206f66206e6f6e60008201527f6578697374656e7420746f6b656e000000000000000000000000000000000000602082015250565b7f227d000000000000000000000000000000000000000000000000000000000000600082015250565b7f4552433732313a206d696e7420746f20746865207a65726f2061646472657373600082015250565b7f45524337323155524953746f726167653a2055524920717565727920666f722060008201527f6e6f6e6578697374656e7420746f6b656e000000000000000000000000000000602082015250565b7f4552433732313a20617070726f76656420717565727920666f72206e6f6e657860008201527f697374656e7420746f6b656e0000000000000000000000000000000000000000602082015250565b7f4552433732313a207472616e73666572206f6620746f6b656e2074686174206960008201527f73206e6f74206f776e0000000000000000000000000000000000000000000000602082015250565b7f4552433732314d657461646174613a2055524920717565727920666f72206e6f60008201527f6e6578697374656e7420746f6b656e0000000000000000000000000000000000602082015250565b7f7b226e616d65223a202200000000000000000000000000000000000000000000600082015250565b7f4552433732313a20617070726f76616c20746f2063757272656e74206f776e6560008201527f7200000000000000000000000000000000000000000000000000000000000000602082015250565b7f46495253545f574f524400000000000000000000000000000000000000000000600082015250565b7f646174613a6170706c69636174696f6e2f6a736f6e3b6261736536342c000000600082015250565b7f4552433732313a207472616e736665722063616c6c6572206973206e6f74206f60008201527f776e6572206e6f7220617070726f766564000000000000000000000000000000602082015250565b7f434f4c4f52000000000000000000000000000000000000000000000000000000600082015250565b613b0081613236565b8114613b0b57600080fd5b50565b613b1781613248565b8114613b2257600080fd5b50565b613b2e81613254565b8114613b3957600080fd5b50565b613b45816132a0565b8114613b5057600080fd5b5056fe416e204e465420772f20494420257320686173206265656e206d696e74656420746f2025734142434445464748494a4b4c4d4e4f505152535455565758595a6162636465666768696a6b6c6d6e6f707172737475767778797a303132333435363738392b2fa2646970667358221220ebd868a66d34709c183b850c0ea9e45e1d95893a9ce9600924338ba47f375e9664736f6c634300080400333c73766720786d6c6e733d27687474703a2f2f7777772e77332e6f72672f323030302f73766727207072657365727665417370656374526174696f3d27784d696e594d696e206d656574272076696577426f783d273020302033353020333530273e3c7374796c653e2e62617365207b2066696c6c3a2077686974653b20666f6e742d66616d696c793a2073657269663b20666f6e742d73697a653a20323470783b207d3c2f7374796c653e3c726563742077696474683d273130302527206865696768743d2731303025272066696c6c3d27272f3e3c7465787420783d273530252720793d273530252720636c6173733d27626173652720646f6d696e616e742d626173656c696e653d276d6964646c652720746578742d616e63686f723d276d6964646c65273e",
  "linkReferences": {},
  "deployedLinkReferences": {}
}